:020000040800F2
:10000000B8530020C1010008F52B0008CD290008D5
:10001000F12B0008B10F0008B12F0008000000000C
:10002000000000000000000000000000712C00082B
:100030003913000800000000012C0008952C00086E
:10004000DB010008DB010008DB010008DB01000820
:10005000DB010008DB010008DB010008DB01000810
:10006000DB0100083D13000845130008DB01000810
:10007000DB010008DB010008DB010008DB010008F0
:10008000DB010008DB010008DB010008DB010008E0
:10009000DB010008DB010008DB010008DB010008D0
:1000A000DB010008792D0008DB010008DB010008F6
:1000B000DB010008DB010008DB010008DB010008B0
:1000C000DB010008DB010008DB010008DB010008A0
:1000D000DB010008DB010008DB010008DB01000890
:1000E000DB010008DB010008DB010008DB01000880
:1000F000DB010008DB010008DB010008DB01000870
:10010000DB010008DB010008DB010008DB0100085F
:10011000DB010008DB010008DB010008DB0100084F
:10012000DB010008DB010008DB010008DB0100083F
:10013000DB010008DB010008DB010008DB0100082F
:10014000DB010008DB010008DB010008DB0100081F
:10015000DB010008DB010008DB010008DB0100080F
:10016000DB010008DB010008DB010008DB010008FF
:10017000DB010008DB010008DB01000800000000D3
:10018000DB010008DB010008DB010008DB010008DF
:10019000DB010008DB010008DB010008DB010008CF
:1001A000DB010008DB010008DB010008DFF80CD0F0
:1001B00000F096FC00480047DD310008B8530020ED
:1001C0000648804706480047FEE7FEE7FEE7FEE7F1
:1001D000FEE7FEE7FEE7FEE7FEE7FEE7652D000827
:1001E000AD0100082DE9F05F0546002092469B46D0
:1001F00088460646814640241BE02846414647463D
:10020000224600F049FA53465A46C01A914110D38B
:1002100011461846224600F030FA2D1A67EB010805
:100220004F4622460120002100F027FA17EB000973
:100230004E41201EA4F10104DFDC484631462A4627
:100240004346BDE8F09F40EA01039B0703D009E065
:1002500008C9121F08C0042AFAD203E011F8013BB2
:1002600000F8013B521EF9D27047D2B201E000F80B
:10027000012B491EFBD270470022F6E710B513464A
:100280000A4604461946FFF7F0FF204610BD00005D
:100290000FB400B58DB010A909900B9000914FF0EC
:1002A000FF300A9000200C90054806900548079002
:1002B0006A4609A80F9900F005FA0DB05DF814FB25
:1002C000E1060008FF0600082DE9FF4F087883B01B
:1002D0009946FF2805D0491C2D2804D00024002071
:1002E00008E000200BE00124F9E700EB800003EBBD
:1002F0004000491C0B78FF2BF7D104B1404200238A
:100300000293147819461D462D2C01D02B2C04D1B4
:10031000521C2D2C13D000240294AA461478FF2CD2
:100320000FD00A25A3FB057801FB05814FF0000CD7
:1003300003FB0C11521CE3194AEB0101EEE7012407
:10034000EAE7814453EA010002D019F5C87F06DAD2
:1003500003980021C0E9001107B0BDE8F08F002527
:10036000AE4E2F46DFF8B882184600F061FBCDE9AB
:100370000001B9F1000002DAC9F1000400E004460E
:100380000023A74A1AEB030B42EB045A12E0E007E2
:1003900007D02A4633463846414600F068FA0746F9
:1003A00088462A4633461046194600F060FA05464C
:1003B0000E466410002CEAD1DDE90001B9F1000F0E
:1003C0005A46534606DA00F0C4FA3A46434600F06D
:1003D000C0FA05E000F04BFA3A46434600F047FA0F
:1003E000029A0AB181F00041039AC2E90001B3E721
:1003F0002DE9FF4F1F468DB0D7E901464FF0FF387A
:100400002E2045464FF000090B90B9696D1C0E98DF
:100410008847396A824688470028F6D1BAF1FF3FFB
:100420000AD024F4D064002E11DDBAF12B0F08D0CD
:10043000BAF12D0F0BD102E0404611B08DE744F424
:100440008064B9696D1C0E9888478246761E69469D
:10045000600501D52D2000E02B208DF8000001F172
:10046000010B0DF1200809E0B9696D1C0E98884751
:1004700082460F9844F40074761E0560002E02DD5B
:10048000BAF1300FF0D00B998A453ED144F0800488
:1004900006E00F99681CA9F1010944F40074086092
:1004A000B9696D1C761E0E98884782463028F0D0B8
:1004B0002BE00B998A4505D1200603D444F0800433
:1004C000761E18E0504606F0A3FA08B30DF11302A9
:1004D000761EAAF1300044F40074934506D20BF85E
:1004E000010B200607D5A9F1010003E0200602D484
:1004F00009F101008146A00502D50F99681C08602A
:10050000B9696D1C0E9888478246002ED1DC53E0F5
:10051000002E51DDBAF1650F02D0BAF1450F4BD173
:10052000A00549D5B9696D1C24F44074761E0E9857
:1005300088478246002E0CDD2B2804D0BAF12D0FFF
:1005400007D144F48074B9696D1C0E9888478246BF
:10055000761EE00501D52D2100E02B2108F8011BB6
:10056000CDF82C8021E00DF12901761E44F40074B1
:1005700088450CD2AAF1300010F0FF0088F8000086
:1005800002D10B99884509D908F1010806E0E00578
:1005900001D5244801E042F20F708146B9696D1C13
:1005A0000E98884782460F980560002E04DD50465D
:1005B00006F02EFA0028D6D1F9690E988847FF2058
:1005C0008BF8000088F800000020069007904B464A
:1005D0006A4608A906A8FFF777FEA00502D46FF0C7
:1005E00001002AE714F0240F0AD0E00714D1DDE956
:1005F00006123868031D3B600068C0E900120BE07A
:10060000DDE9060100F050FA0146E00704D1386840
:10061000021D3A600068016028460EE700001440A1
:100620000000F03FF1D8FFFF00F0004230F0004042
:100630000AD0C10D01F56071C0F3160042EA015104
:10064000C20840071143704700200146704730B58B
:100650000B46014600202022012409E021FA02F580
:100660009D4205D303FA02F5491B04FA02F528441A
:10067000151EA2F10102F1DC30BD202A04DB203A74
:1006800000FA02F1002070479140C2F1200320FAE5
:1006900003F3194390407047202A04DB203A21FAE3
:1006A00002F00021704721FA02F3D040C2F120028B
:1006B000914008431946704702681144137801605D
:1006C00018467047D1600449516104491162002104
:1006D0001161114600F02EBAB9060008290B000876
:1006E000426842B1016811F8013B23B1521EC0E9D2
:1006F0000012184670470121C160881E7047426889
:100700005AB1C368016843B983688B4205D0491E5A
:10071000521CC0E90012002070474FF0FF307047B4
:100720002DE9FE4F804681EA0300C00F0C46009081
:1007300021F0004123F00045B8EB0200A94105D2A9
:100740004046214690461C460B46024623F0004098
:10075000104347D0270DC7F30A00C3F30A51029094
:10076000401A019040286BDAC3F3130040F4801B59
:100770000098924620B10023D2EB030A63EB0B0BE7
:1007800001985946C0F140025046FFF776FF0646F1
:100790000D4650465946019A00F0B4F910EB080096
:1007A0006141002487EA115284EAE7731A4340D07A
:1007B000009A62B3019A012A4FEA075215DC001B26
:1007C00061EB02014FF0004202EA0752CDE900421C
:1007D000001C41F5801132462B4600F087FB03B028
:1007E000BDE8F08F40462146F9E7001B61EB0201AE
:1007F000001C41F5801300185B412018A2F500177A
:1008000047EB030140EAD570B6196D4111E06D0860
:100810004FEA360645EAC0754FEA0752001B61EB06
:100820000201001C41F5801149084FEA300000190F
:10083000514132462B4603B0BDE8F04F00F047BBB4
:100840000098012240000023D0EB020263EBE0732A
:10085000009821464FEAE074B8EB000061EB040118
:10086000E9E783F000435BE781F0004158E72DE9B9
:10087000FE4F81EA030404F0004421F0004100949B
:100880004FF0000B23F0004350EA01045ED052EA1F
:1008900003045BD0C3F30A54C1F30A552C44A4F2F9
:1008A000F3340194A0FB0254C1F3130141F480110D
:1008B000C3F3130343F4801301FB024400FB034E14
:1008C000840A970A44EA815447EA8357A4FB0768DD
:1008D00002958D0A05FB07854FEA932C04FB0C5407
:1008E0002705029D4FEA065847EA1637B5EB08057B
:1008F0006EEB070C870E920E47EA811742EA8312CD
:10090000A7FB0201B6EB0B0164EB00042B0D43EADD
:100910000C335E1844EB1C50DA465146E7FB0201EB
:10092000C5F313044FEA0B3343EA14534FEA04327E
:10093000019C43EA0603A4F10C040294009CCDE957
:1009400000B400F0D3FA03B0BDE8F08F00200146F8
:10095000F9E72DE9F04D81EA030404F0004B21F0A2
:10096000004514464FF0000A23F0004150EA05020A
:1009700020D054EA01021DD0C5F30A570246C5F340
:100980001303C1F31300C1F30A5640F4801543F476
:100990008013A7EB0608101BD64608F2FD3873EB50
:1009A000050002D308F1010801E092185B41B8F19B
:1009B000000F03DA00200146BDE8F08D00204FF45F
:1009C0008011064684460EE0171B73EB050705D31E
:1009D000121B63EB050306434CEA010C49084FEA7E
:1009E000300092185B4150EA0107EDD152EA030052
:1009F00012D082EA040083EA0501084305D0101BE7
:100A0000AB4106D20122002306E000224FF0004352
:100A100002E06FF0010253101AEB06004CEB085194
:100A200010EB0A0041EB0B01BDE8F04D00F04FBAAE
:100A30000EB540F2334202920022CDE90022134665
:100A400000F054FA03B000BDC1F30A52C1F3130120
:100A500040F2FF3341F480119A4202DA002001464D
:100A6000704740F233439A42A2F2334202DC5242D0
:100A7000FFF712BEFFF701BE30B5041E71F100048E
:100A800004DB4FF00044404264EB0101141E73F19B
:100A9000000405DB1C464FF00043524263EB0403A5
:100AA000994208BF904230BD01F0004330B421F0BC
:100AB000004150EA010206D00A0DA2F56072C1F3AE
:100AC0001301002A02DC30BC00207047440F44EAC6
:100AD000C104C100E01830BC00EBC25000F0C0B946
:100AE000064C074D06E0E06840F0010394E807007B
:100AF00098471034AC42F6D3FFF75CFB089300082C
:100B000028930008202A06DBCB17203A41FA02F08E
:100B100043EAE07306E041FA02F3D040C2F120025A
:100B20009140084319467047C0B24FF4F05100F0AD
:100B30002BBA00002DE9F34F8BB04FF0000801F104
:100B40000C000C464FF0010B46460DF1080A0190CF
:100B50006269012101989047051E2DD0252D2CD0CA
:100B6000216A8847C0B16269012101989047216AD2
:100B700088470028F7D1411E62690198904700E03C
:100B8000761CA1690B988847216A88470028F7D10D
:100B9000E1690B988847DBE7A1690B98884707460E
:100BA000A84201D1761CD3E7E1690B9888477F1CE6
:100BB00002D1B8F1000F6FD046E1002762693D46CF
:100BC0003946019890472A2804D162690121019889
:100BD00090470125DFF884926269012101989047CE
:100BE000A0F130010A290AD24F45E5DC07EB870165
:100BF00000EB4107303FDFD445F01005ECE7E90694
:100C000001D46FF000476C280AD04C2814D0682813
:100C100015D06A280DD074281CD07A281AD01DE06F
:100C200062690121019890476C2802D045F00405C3
:100C300014E045F002050DE045F020050AE0626988
:100C4000012101989047682802D045F0080505E089
:100C500045F400656269012101989047C4E9015794
:100C600065283DD019DC58287AD00CDC452837D0CF
:100C700004DC252826D0412831D131E046282FD068
:100C800047282CD12CE05B2877D0612828D0632816
:100C90007CD0642823D15AE0D0E06F2848D008DC0B
:100CA00066281DD067281BD0692821D06E2816D150
:100CB00027E0702845D0732868D0752847D0782859
:100CC0000DD14DE0A1690B988847054625283FF4D2
:100CD00069AFE1690B9888476D1C3FF46AAFB3E0D8
:100CE00023466A466FF001000B99FFF781FB9EE0F7
:100CF00045F040006060A80723464FF0000236D45C
:100D00003EE0E8077FF447AF2068011D21600068DE
:100D1000290501D506701BE7290701D5068017E7CD
:100D2000A90703D5F117C0E9006111E706600FE7D5
:100D300045F040006060A80723464FF0080216D433
:100D40001EE040F60E0125EA0100606016E045F065
:100D500040006060A80723464FF00A0207D40FE066
:100D600045F040006060A80708D5234610226FF0C8
:100D700001000B99AFF3008059E007E023461022F1
:100D80006FF001000B99AFF3008050E04FF00009C5
:100D90004F464B46632802D05B2806D040E0E80669
:100DA00001D40120A06001273AE062690121019885
:100DB00090475E2805D14FF00109626949460198C4
:100DC0009047216939B900210A46534643F821204A
:100DD000491C0829FADBB0B3216969B9C11700EBD6
:100DE000D16253110AEB830122F01F02821A012003
:100DF0000B68904003430B606269012101989047A2
:100E00005D28E8D1B9F1000F09D00020514651F812
:100E10002020D24341F82020401C0828F7DB02ABF9
:100E2000224600976FF001000B99AFF30080002875
:100E30000CDA401C08D1BBF1000F05D04FF0FF3099
:100E40000DB0BDE8F08FFFE74046F9E7E90701D1B3
:100E500008F1010806444FF0000B79E6CCCCCC0C2D
:100E60000029A8BF7047401C490008BF20F00100BE
:100E7000704710B4B0FA80FC00FA0CF050EA01049C
:100E800004BF10BC704749B1CCF1200421FA04F42E
:100E900011FA0CF118BF012121430843A3EB0C0107
:100EA000CB1D4FEA00614FEA102042BF002010BC6A
:100EB000704700EBC35010440029A4BF10BC70471A
:100EC000401C490008BF20F0010010BC704710B55D
:100ED000141E73F1000408DA401C41F1000192185D
:100EE0005B411A4301D120F0010010BD2DE9F04D06
:100EF00092469B4611B1B1FA81F202E0B0FA80F25B
:100F000020329046FFF7B9FB04460F4640EA0A003C
:100F100041EA0B0153465A46084313D0114653EA9F
:100F2000010019D0C8F140025046FFF7B5FB054655
:100F30000E46504659464246FFF79FFB084305D0F0
:100F4000012004E020463946BDE8F08D002005432D
:100F500046EAE0762C4337430A986305E40AA0EB9F
:100F600008000022FD0A44EA47540A3002D5002056
:100F70000146E9E7010510196941DDE90845001955
:100F80006941BDE8F04DA2E77F2801D9002208E0C1
:100F9000064A02EB5002C007127800D1120902F093
:100FA0000F0201209040084070470000887100083F
:100FB000FEE700002DE9F04F87B00C46054601F032
:100FC000F9FF002800F0AE8141F2004640F2C81A55
:100FD000CDE901540024C4F20206C2F2000A41F233
:100FE000111540F24448002712E000BF016A29426F
:100FF00032D030464FF4805100F090FA002807F1CB
:10100000010718BF0120082F40EA4B0B2ED000BF6C
:1010100030464FF4805100F081FA0028F8D100BF2B
:1010200030464FF4805100F079FA0028F8D0DAF811
:1010300000004462016841F001010160416A272912
:10104000D4D8416A2729D1D8416A2729CED8416A04
:101050002829F3D3CAE700BF016A11EA080FC8D1F3
:10106000016821F001010160C3E700BF4FF00009F2
:1010700041F2111540F24448002411E0016A29426E
:1010800034D030464FF4805100F048FA002804F183
:10109000010418BF0120082C40EA470730D000BFE8
:1010A00030464FF4805100F039FA0028F8D100BFE3
:1010B00030464FF4805100F031FA0028F8D0DAF8C9
:1010C0000000C0F82490016841F00101016000BFF8
:1010D000416A2729D2D8416A2729CFD8416A2729CE
:1010E000CCD8416A2829F3D3C8E700BF016A11EAC6
:1010F000080FC6D1016821F001010160C1E700BFFE
:101100004FF0000841F211144FF0000912E000BF47
:10111000016A214234D030464FF4805100F0FEF98C
:10112000002809F1010918BF0120B9F1080F40EAB0
:1011300045052FD030464FF4805100F0EFF90028DC
:10114000F8D100BF30464FF4805100F0E7F9002895
:10115000F8D0DAF80000C0F82480016841F00101FD
:10116000016000BF416A2729D2D8416A2729CFD818
:10117000416A2729CCD8416A2829F3D3C8E700BFA0
:10118000016A40F244421142C5D1016821F00101D7
:101190000160C0E741F211194FF0000814E000BFF0
:1011A000016A11EA090F35D030464FF4805100F042
:1011B000B5F9002808F1010818BF0120B8F1080F9F
:1011C00040EA440430D000BF30464FF4805100F074
:1011D000A5F90028F8D100BF30464FF4805100F047
:1011E0009DF90028F8D0DAF800000021416201687A
:1011F00041F00101016000BF416A2729D0D8416A4E
:101200002729CDD8416A2729CAD8416A2829F3D38A
:10121000C6E700BF016A40F244421142C4D10168EE
:1012200021F001010160BFE74FF0000814E000BFAA
:10123000016A41F21112114234D030464FF480510C
:1012400000F06CF9002808F1010818BF0120B8F17E
:10125000080F40EA49092FD030464FF4805100F082
:101260005DF90028F8D100BF30464FF4805100F0FE
:1012700055F90028F8D0DAF8000000214162016831
:1012800041F00101016000BF416A2729D0D8416ABD
:101290002729CDD8416A2729CAD8416A2829F3D3FA
:1012A000C6E700BF016A40F244421142C5D101685D
:1012B00021F001010160C0E7FFB257FA8BF050FA4C
:1012C00085F050FA84F05FFA89F1884225D147F21F
:1012D000E019C0F600090DF114085FFA8BF34046DF
:1012E00008214A46EEB2E4B2009705F0A5FA03AD34
:1012F000284608214A463346009405F09DFA47F2F5
:10130000E616C0F60006019A40463146FEF7C0FFD9
:10131000029A28463146FEF7BBFF002007B0BDE821
:10132000F08F00BF0020C4F2C62028602060FF209C
:1013300007B0BDE8F08F000070470000082000F003
:101340000DB80000102000F009B80000EFF3108085
:1013500072B600BFFEE700007047000043F614417C
:10136000C4F201010A68024214BF08607047FFF727
:10137000F3BF00002DE9F04F82B000F13E4242F28F
:10138000004502F1FF77C4F202050A2243F6004E3F
:101390004FEAB726A84208BF0922C4F2010E092E5F
:1013A00038BF4FEAB7220125002600274FF000087A
:1013B000009208E008F101080437B8F1100F06F1B7
:1013C000020600F0A7800C6805FA08F914EA090F74
:1013D000F0D0D1F804B003220BF0030CACF10104FF
:1013E000B240012C6FEA020A10D88268CC6802EA87
:1013F0000A02B440224382604268CBF3001422EA1E
:10140000090204FA08F42243426005E0BCF1030F2C
:1014100002D14FF0030C20E0C2688C6802EA0A0295
:10142000B4402243BCF1020FC26016D16FF0030238
:1014300002EA58020244D2F820C007F01C050F232C
:101440000C69AB402CEA030304FA05F52B43136245
:10145000D1F804B001250BF0030C02680CFA06F376
:1014600002EA0A021A431BF4403F0260A2D00022A3
:1014700043F644030192C4F202031A684FF6084C83
:1014800042F480421A601A68CFF6FF7C02F4804270
:101490000192019A28F00302724452F80C3007F0CE
:1014A0000C050F24AC40A343009C04FA05F52B4324
:1014B00042F80C30DEF808204B6842EA090543F692
:1014C0000C4CDC0258BF22EA0905CEF80850C4F2E1
:1014D000010CDCF800209C0242EA090558BF22EA10
:1014E0000905CCF80050DEF804209C0342EA090507
:1014F00058BF22EA0905CEF80450DEF80020DB03CD
:1015000042EA090558BF22EA0905CEF80050012534
:1015100050E700BF02B0BDE8F08F0000006908404E
:1015200018BF012070470000002A08BF090481612C
:101530007047000044F6BC00C2F20000006870472B
:1015400090F83D20202A1CBF02207047242280F8FA
:101550003D200268136823F001031360536A23F0EF
:1015600010035362536A19435162116841F001013B
:101570001160202180F83D100020704790F83D2038
:10158000202A1CBF02207047242280F83D200268D8
:1015900089B2136823F001031360D2F824C04FF618
:1015A000F07303EA0C0319435162116841F0010121
:1015B0001160202180F83D100020704770B5B8B34D
:1015C000044690F83D0028B9002084F83C002046ED
:1015D00000F0ECFA242084F83D002068016821F036
:1015E00001010160016841F400410160016821F4DA
:1015F0000041016000F0D6FC48F28041C0F21E01BB
:1016000040F60013D4F804E088424FF00001C0F225
:101610003D0348F2A16C4FF0000238BF012198420F
:10162000C0F2010C38BF0122E64538BF0A460AB1B4
:10163000012070BD4DF68361C4F21B31A0FB011285
:101640002168950C4B684FF4967623F03F0343EAEC
:101650009243754344F6D3564B60C1F262060B6A5F
:10166000A5FB0656B50923F03F03E64538BF950CA8
:101670006A1C1A430A62CA6948F2A0664CF6FF73F4
:10168000C0F20106B64522EA03020BD801384FEA40
:101690004E03B0FBF3F001306FF31F30042898BF06
:1016A00004201EE0A368013863B119230EFB03F385
:1016B000B0FBF3F001306FF31F3078B100F58040DC
:1016C00008E000BF0EEB4E03B0FBF3F001306FF308
:1016D0001F3028B100F5004003E000BF012000E00A
:1016E00001201043C8610868D4E9072320F0C00036
:1016F000104318430860886848F2FF3204F10C0672
:1017000090434CCE18431043A5698860C86820F008
:10171000FF0030432843C860086840F001000860BB
:1017200000202021206484F83D10206384F83E00CE
:1017300070BD00002DE9F04381B01F461646884673
:101740000446FFF7F7FE94F83D10202920D1054606
:1017500020688169890717D5FFF7ECFE401B19281F
:10176000F6D900202021206384F83D1084F83E0043
:10177000216C022641F02001216484F83C003046AF
:1017800001B0BDE8F08300BF94F83C10012905D1F9
:101790000226304601B0BDE8F08300BF012184F885
:1017A0003C100168C90703D1016841F001010160E3
:1017B000016821F400610160212184F83D101021AD
:1017C00084F83E100021216466626785618D218561
:1017D0000021CFF6FF71E162E16A11F5803F18BF89
:1017E000012919D1016841F4807101604169DDF876
:1017F0002090C90723D119F1010116D0B9F1000FCA
:1018000046D000BFFFF796FE401B484542D82068EF
:101810004169C907F6D012E00829E3D0216B1229EB
:10182000E0D0E3E74169C90709D14169C90706D199
:101830004169C90704BF41695FEAC171F2D02169FA
:10184000B1F5804F02D1FE2161E000BF062101EA1F
:10185000D811F03101614169090757D4416919F183
:10186000010201F480612FD0002946D1B9F1000FA7
:1018700000F04281FFF75EFE401B484500F23E81CA
:1018800020684169090741D441694905F2D534E02E
:10189000FFF750FE00202021206384F83D1084F8DB
:1018A0003E00216C012641F020012164216884F86A
:1018B0003C000868C00544BF4FF400702064304607
:1018C00001B0BDE8F08300BFB9B9416909071DD473
:1018D0004169490511D44169090717D4416949058E
:1018E0000BD44169090711D44169490505D44169FF
:1018F00009070BD441694905E7D5016841F4007136
:1019000001606FF4806141610420F8E0FF2101EA89
:1019100008010161416989073AD4416919F101025D
:1019200001F4806112D051BBB9F1000F00F0E080EA
:10193000FFF700FE401B484500F2DC80206841694B
:10194000890725D441694905F2D518E0B9B941693B
:1019500089071DD44169490511D44169890717D404
:10196000416949050BD44169890711D44169490589
:1019700005D4416989070BD441694905E7D5016858
:1019800041F4007101606FF4806141610420B6E0B0
:101990000026009641690091816900910099218D8E
:1019A000002900F0958009F10108014651F8142F33
:1019B000120635D4B8F1000F16D0B9F1000F00F0BF
:1019C000AF8000BF0868400500F1B280FFF7B2FDAC
:1019D000401B484500F2A9802068014651F8142FA9
:1019E0001206EFD51CE000BF0A68520500F1A08086
:1019F0000A68120614D40A68520500F199800A6830
:101A000012060DD40A68520500F192800A68120687
:101A100006D40A68520500F18B800A681206E3D5E5
:101A2000636A194611F8012B02616162618D013907
:101A30006185278D0146A7F1010CA4F828C051F853
:101A4000142F52070DD55FEA0C420AD05A78A7F13D
:101A5000020C02619A1C6262628D013A6285A4F8EE
:101A600028C00A6852072FD4B8F1000F14D0B9F17A
:101A7000000F7BD00868400500F18080FFF75AFD19
:101A8000401B484577D82068014651F8142F52076B
:101A9000F0D5B4F828C017E00A6852056ED40A6879
:101AA000520711D40A68520568D40A6852070BD449
:101AB0000A68520562D40A68520705D40A685205BA
:101AC0005CD40A685207E7D55FEA0C417FF46DAF3A
:101AD000016841F400710160202084F83D0084F821
:101AE0003E6084F83C60304601B0BDE8F08300BF42
:101AF000FFF720FD202002E0FFF71CFD2020002141
:101B00002022216384F83D2084F83E10226C0126B7
:101B10001043206484F83C10304601B0BDE8F083E7
:101B20000868400504D4FFF705FD202004E000BF4D
:101B30006FF480600860042000212022216384F873
:101B40003D2084F83E10226C1043206484F83C1041
:101B5000206C042825D120680126016841F4007119
:101B60000160304601B0BDE8F08300BF0868400561
:101B700004D4FFF7DFFC202004E000BF6FF4806096
:101B80000860042000212022216384F83D2084F88D
:101B90003E10226C1043206484F83C10206C042812
:101BA000D9D00126304601B0BDE8F083B0B586B08B
:101BB000016845F20040C4F20000814202D006B044
:101BC000B0BD00BF002443F630050194C4F2020505
:101BD000296800F5D83041F002012960296801F038
:101BE0000201019101994FF4407101911221CDE957
:101BF0000214032104910421059101A9FFF7BAFB06
:101C00000094286940F400102861286900F400104D
:101C10000090009806B0B0BD40F2040044F6BC014C
:101C2000C2F20000C2F2000100780A6810440860A5
:101C30007047000080B543F60040C4F2020001681E
:101C400041F400710160016841F480610160016844
:101C500041F480710160032000F0C4F80F2000F00F
:101C600005F800F05DF8002080BD0000B0B586B03A
:101C7000002543F644010195C4F202010A680446B6
:101C800042F001020A60096801A801F00101019116
:101C90000199694600F066F900F098F94DF6836104
:101CA0004000C4F21B31A0FB01014FF0FF3000EBFC
:101CB000914140F280100022C2F20000C4F2010201
:101CC00040F2E733C0E90021C0E9025305618561B4
:101CD00000F0E0FB054618B1284606B0B0BD00BFD5
:101CE00040F28010C2F2000000F01CFC0546002803
:101CF000F2D1192000F036F80F2C0DD8192021460A
:101D00000022002500F042F840F20800C2F2000074
:101D10000460284606B0B0BD0125284606B0B0BD17
:101D200082B0002043F640010190C4F202014A68EB
:101D300042F480424A604A6802F480420192019A69
:101D400000900868002240F08050086008680F2169
:101D500000F08050009000986FF0010002B000F099
:101D600015B80000002848BF7047C1B200F01F003E
:101D7000012202FA00F04EF20012CEF2000242EA14
:101D8000D10121F0030108607047000010B54EF644
:101D90000C5CCEF2000CDCF80030C3F3022E8EF0A7
:101DA0000704042C28BF0424BEF103034FF0FF3EB8
:101DB0000EFA04F438BF0023A14399400EFA03F34E
:101DC0009A43114300F00F0200F160430901043A05
:101DD00003F564436244002848BF02F10C03197004
:101DE00010BD00004EF60C51CEF200010A684FF60D
:101DF000FF031A4060F30A2242F0806040F0FD7059
:101E0000086070472DE9F041002800F08B8043F610
:101E10000808C4F202080446D8F8F8030D4600F09A
:101E20000F00884207D288F8F853D8F8F80300F07A
:101E30000F00A84276D12068810717D5410705D544
:101E4000D8F8001041F4E051C8F80010010705D59A
:101E5000D8F8001041F46041C8F80010D8F800101C
:101E6000A26821F0F0011143C8F80010C0073FD16B
:101E7000D8F8F80300F00F00A84207D988F8F85303
:101E8000D8F8F80300F00F00A8424BD120684107B2
:101E900007D5D8F80010E26821F4E0511143C8F8E2
:101EA0000010000708D5D8F80000216920F4604030
:101EB00040EAC100C8F8000000F09CF8D8F8001013
:101EC00047F2C812C1F30311C0F60002515C40F2A0
:101ED0000C0220FA01F140F20800C2F20000006892
:101EE000C2F200021160FFF7C1FE0020BDE8F081E0
:101EF0006068811E022907D258F8081C89015CBF5E
:101F00000120BDE8F08111E0012807D158F8081C34
:101F100089035CBF0120BDE8F08107E058F8081C88
:101F2000890703D40120BDE8F08100BFD8F8001074
:101F300021F003010843C8F80000FFF7FBFA06464A
:101F400041F28837D8F80000616800F00C00B0EB6F
:101F5000810F8DD0FFF7EEFA801BB842F2D9032033
:101F6000BDE8F0810F22026043F60802C4F20202CB
:101F7000136803F003034360136803F0F003836006
:101F8000136803F4E053C360D2F800C04FF4E05389
:101F900003EADC030361D2F8F80300F00F000860E5
:101FA0007047000040F20C0043F60801C2F2000046
:101FB000C4F202010068096847F2D812C1F3822115
:101FC000C0F60002515CC8407047000040F20C00AF
:101FD00043F60801C2F20000C4F202010068096879
:101FE00047F2D812C1F34231C0F60002515CC8403A
:101FF0007047000010B543F60404C4F202046068A0
:1020000000F00C0142F200400829C0F2F40007D0B1
:10201000042918BF10BD41F20020C0F27A0010BDA3
:10202000216801F03F02216823684902C3F3881147
:1020300006D4A1FB00010023FEF7D4F807E000BF9F
:1020400041F20020C0F27A004843B0FBF2F0216870
:102050000222C1F3014102EB4101B0FBF1F010BDDE
:102060002DE9F04182B0002868D00446007843F69C
:102070000006C007C4F202060BD0B06800F00C00E6
:10208000042840F09F803068800302D560680028F3
:1020900054D0207880071AD5B06810F00C0F09D002
:1020A000B06800F00C00082840F0A680706840027C
:1020B00000F1A2803068800702D5E06801283DD198
:1020C0003068216920F0F80040EAC10030602078D3
:1020D000000737D4207840074CD4A56955B3B068C1
:1020E00000F00C00082840F0BB80012D26D070685D
:1020F000E16900F480028A4220D1216A00F03F02A7
:102100008A421BD147F6C071626A0140B1EB821F5F
:1021100014D1A16A4FF6FF73C903994300F440320A
:10212000A1F580318A4209D1E16A00F07060B0EB1C
:10213000016F03D1002002B0BDE8F081012002B0A0
:10214000BDE8F0816069002840F20000C4F2472039
:1021500076D00121C0F8801EFFF7ECF9054600BFDC
:10216000706F8007B6D4FFF7E5F9401B0228F7D956
:10217000DDE000BF306C10F080580AD100200190E3
:10218000306C40F080503064306C00F08050019032
:10219000019847F20007C4F200073868C00541D42F
:1021A000386840F480703860FFF7C4F9054600BF16
:1021B0003868C00536D4FFF7BDF9401B0228F7D9AF
:1021C000B5E000BFB06800F00C00082803D17068CB
:1021D00040023FF558AF6068B0F5803F07D0B0F5DA
:1021E000A02F40F08D80306840F48020306030684F
:1021F00040F4803030608DE0E068002852D000204C
:10220000C4F2472001210160FFF794F9054600BFA1
:10221000306880073FF554AFFFF78CF9401B022868
:10222000F6D984E0A068012805D005284ED1306F8A
:1022300040F004003067306F40F0010030674FE03D
:102240000021C0F8801EFFF775F90546706F800702
:102250007FF540AFFFF76EF9401B0228F6D966E024
:102260000027C4F2472700203866FFF763F9022DE4
:1022700005460BD1306880015ED5FFF75BF9401B46
:1022800002284FF00300F5D955E700BF3068800100
:102290007FF550AFFFF74EF9401B02284FF00300C7
:1022A000F4D948E70020C4F2472000210160FFF77D
:1022B00041F90546306880077FF509AFFFF73AF925
:1022C000401B02284FF00300F4D934E7316F002897
:1022D00021F001013167316F21F0040131674DD0E8
:1022E000FFF728F9054641F2883700BF306F8007B5
:1022F00056D4FFF71FF9401BB842F7D917E000BFCB
:102300003168002821F480313160316821F4802166
:1023100031604FD0FFF70EF9054600BF30688003EB
:102320003FF5B7AEFFF706F9401B6428F6D9032046
:1023300002B0BDE8F08100BF04F11C052FCD0843B9
:1023400040EA8210D9034FF6FF729143A1F5803124
:1023500040EA05600843706001203866FFF7EAF83C
:10236000044600BF306880013FF5E4AEFFF7E2F8B5
:10237000001B02284FF00300F4D9DCE6FFF7DAF87F
:10238000054641F2883700BF306F800708D5FFF758
:10239000D1F8401BB8424FF00300F5D9CBE600BF9F
:1023A000B8F1000F7FF499AE306C20F080503064AB
:1023B00093E600BFFFF7BEF8054600BF3068800314
:1023C0007FF567AEFFF7B6F8401B64284FF00300B7
:1023D000F4D9B0E6704700007047000010B590F8DF
:1023E0003C20012A4FF0020251D080F83D200268C3
:1023F000D2F804E0D2F808C00C682EF07003234332
:1024000041F2FF74C4F20004A24253600EDC40F2B9
:10241000FF73C4F200039A4216DCB2F1804F2BD056
:1024200040F20043C4F2000324E000BF40F2FF3357
:10243000C4F201039A4213DC41F60003C4F2000324
:102440009A4219D0002313E040F60003C4F20003BF
:102450009A4211D040F60043C4F200030AE000BFE4
:1024600044F20003C4F201039A4205D040F2004353
:10247000C4F201039A4204D149682CF08003194345
:1024800091600121002280F83D1080F83C20104628
:1024900010BD0000002804BF0120704710B504469D
:1024A00090F83D0028B9002084F83C00204600F058
:1024B0001FF8022084F83D002068211D00F062FC16
:1024C000012084F8460084F83E0084F83F0084F838
:1024D000400084F8410084F8420084F8430084F806
:1024E000440084F8450084F83D00002010BD000041
:1024F00081B00068B0F1804F02D001B0704700BFDA
:102500000020009043F64000C4F20200016841F050
:1025100001010160006800F001000090009801B026
:102520007047000090F83D1001291CBF0120704742
:10253000022180F83D10006841F2FF72C168C4F2C8
:102540000002904241F00101C1600DDC40F2FF71D8
:10255000C4F20001884215DCB0F1804F2AD040F26D
:102560000041C4F2000123E040F2FF31C4F2010156
:10257000884213DC41F60001C4F20001884219D000
:10258000002113E040F60001C4F20001884211D09E
:1025900040F60041C4F200010AE000BF44F200012D
:1025A000C4F20101884205D040F20041C4F20101A9
:1025B000884206D1816801F00701062904BF002086
:1025C0007047016841F00101016000207047000080
:1025D00080B590F83C20012A4FF0020200F0C28042
:1025E00080F83D20D0F800C04FF67772DCF8083054
:1025F00023EA0202CCF808200B684F2B28DC1F2BA3
:1026000044DD202B45D0302B43D0402B40F0AC8014
:10261000D1F804E0C968DCF82030DCF8202022F092
:102620000102CCF82020DCF8182022F0F00242EA67
:10263000011123F00A0242EA0E02CCF81810CCF87D
:102640002020DCF8081041F0470121F0300180E043
:102650006F2B27DDB3F5005F48D0B3F5805F7AD0EC
:10266000702B40F08180D1E901E3C968DCF80820D3
:1026700043EA0E0322F47F4243EA01211143CCF8DE
:102680000810DCF8081041F0770162E00BB1102B64
:102690006AD1DCF8081021F07001194341F00701FC
:1026A00057E000BF502B35D0602B5DD1D1F804E04E
:1026B000C968DCF8203023F01003CCF82030DCF8B7
:1026C0001830DCF8202023F4704322F0A00243EA03
:1026D000013142EA0E12CCF81810CCF82020DCF8B8
:1026E000081041F0670121F0100132E0D1E901E367
:1026F000C968DCF8082043EA0E0322F47F4243EA6B
:1027000001211143CCF80810DCF8081041F4804195
:102710001FE000BFD1F804E0C968DCF82030DCF825
:10272000202022F00102CCF82020DCF8182022F032
:10273000F00242EA011123F00A0242EA0E02CCF84A
:102740001810CCF82020DCF8081041F0570121F0D7
:102750002001CCF808100022012180F83D10002152
:1027600080F83C10104680BD0122F5E7704700005C
:1027700010B5016804460869800744BFC8685FEA6D
:10278000807039D40869400744BFC8685FEA407068
:102790003ED40869000744BFC8685FEA007045D4AA
:1027A0000869C00644BFC8685FEAC0604AD40869C7
:1027B000C0071CBFC8685FEAC07051D10869000635
:1027C00044BFC8685FEA006052D40869400644BF4D
:1027D000C8685FEA406053D40869800646BFC8688D
:1027E0005FEA806010BD6FF0200220460A61BDE8FC
:1027F0001040FFF7F1BD00BF6FF00200086101203B
:1028000020778869800743D02046FFF7AFFF45E077
:102810006FF00400086102202077886910F4407F7F
:1028200040D02046FFF7A2FF42E000BF6FF0080053
:10283000086104202077C86980073DD02046FFF753
:1028400095FF3FE06FF01000086108202077C8690D
:1028500010F4407F3AD02046FFF788FF3CE000BFED
:102860006FF001000861204600F03EF82168A5E7FE
:102870006FF0800008612046FFF7ACFD2168A4E7F7
:102880006FF040000861204600F038F82168A3E7A7
:10289000204600F025F8204600F024F821680020AA
:1028A00020776FE7204600F01BF8204600F01AF86A
:1028B0002168002020776CE7204600F011F82046C0
:1028C00000F010F821680020207769E7204600F02A
:1028D00007F8204600F006F821680020207766E718
:1028E000704700007047000000680021C4F2010139
:1028F000884218BF7047FFF78FB90000704700008B
:10290000002804BF0120704710B5044690F83D0030
:1029100028B9002084F83C00204600F021F824204B
:1029200084F83D002068C16821F40051C160204650
:1029300000F0C6FA2068016921F490410161416903
:1029400021F02A014161C16841F40051C1600020B9
:102950002021206484F83D1084F83E1010BD000052
:1029600080B586B0016844F60000C4F200008142E0
:1029700002D006B080BD00BF002143F630020191B5
:10298000C4F20202136900F5E23043F480231361BC
:10299000136903F480230193019B0191136843F0B1
:1029A00008031360126802F008020192019A4FF4C2
:1029B000407201920222CDE90221032104910721F4
:1029C000059101A9FEF7D6FC06B080BDFEE7000028
:1029D000F0B587B0002643F63000CDE905660196D4
:1029E000C4F20200016840F2004441F010010160AD
:1029F0000168C4F2020401F01001019101990196ED
:102A00000168002241F08001016001684FF48047B5
:102A100001F08001019101990196016841F02001C6
:102A20000160016801F0200101910199019601689E
:102A300041F002010160016801F002010191019978
:102A40000196016841F008010160016801F0080188
:102A5000019101990196016841F00101016000684E
:102A60004FF4804100F00100019001982046FEF7EC
:102A70005BFD182002904FF4881002ADCDE90306EB
:102A800004F540602946FEF775FC4FF48050CDE90F
:102A9000020604F5805029460496FEF76BFC0120DF
:102AA000CDE903062046294602970596FEF762FC0B
:102AB000092005210022FFF769F90920FFF752F9E3
:102AC0000A2005210022FFF761F90A20FFF74AF9E1
:102AD00007B0F0BD80B540F22C1045F20041C2F2C3
:102AE0000000C4F2000141F6802200234FF4804C24
:102AF000C0F2060280E80E00C0E9033CC0E90533DD
:102B0000C0E90733FEF75AFD002818BFFEF71EFC88
:102B100040F22C10C2F200000021FEF711FD002847
:102B200018BFFEF713FC40F22C10C2F20000002187
:102B3000FEF724FD002808BF80BDBDE88040FEF7F9
:102B400005BC000080B586B040F2C8100021C2F27A
:102B500000004FF0804253234FF0FF3C0591CDE938
:102B60000311CDE90011C0E90023C0E9021C016195
:102B70008161FFF78FFC002818BFFEF7E7FB4FF4D9
:102B80008050029040F2C810C2F2000002A9FFF784
:102B90001FFD002818BFFEF7D9FB40F2C810C2F293
:102BA00000006946FFF71AFC002818BFFEF7CEFBAD
:102BB00006B080BD80B540F2102044F60001C2F29C
:102BC0000000C4F2000100234FF00C0C4FF4E1327E
:102BD00080E80E00C0E90333C0E905C3C361FFF715
:102BE0008FFE002808BF80BDBDE88040FEF7AEBB69
:102BF000FEE70000FEE7000000000000000000000B
:102C0000EFF30980BFF36F8F154B1A681EF0100F9A
:102C100008BF20ED108A20E9F04F10602DE909006F
:102C20004FF0500080F31188BFF34F8FBFF36F8FC9
:102C300002F076FF4FF0000080F31188BDE8090034
:102C400019680868B0E8F04F1EF0100F08BFB0EC2C
:102C5000108A80F30988BFF36F8F704700BF00BFF1
:102C6000280000200000000000000000000000001C
:102C7000074B19680868B0E8F04F80F30988BFF384
:102C80006F8F4FF0000080F31188704700BF00BFC6
:102C90002800002080B54EF21000CEF2000000683F
:102CA00003F0D0FB012808BF80BDBDE8804003F0E1
:102CB00057B80000B0B592B0002443F64000CDE90B
:102CC0000A44CDE908440594CDE90344CDE9014423
:102CD0000094C4F202000168022541F080510160B5
:102CE000006800F080500090009847F200000094C7
:102CF000C4F20000016841F440410160006800F442
:102D0000404000900098012006904FF480300790DA
:102D10004FF480000D9004200E90A820CDE90F05FF
:102D20000720119006A80C95FFF79AF920B1EFF350
:102D3000108072B6FEE700BF0F20CDE901054FF409
:102D4000A05004904FF48050059001A805210394F1
:102D5000FFF758F820B1EFF3108072B6FEE700BF1E
:102D600012B0B0BD4EF68850CEF20000016841F4BA
:102D7000700101607047000040F28010C2F2000054
:102D8000FFF7F6BC10B540F6FF3E0368C4F2000E34
:102D900040F2004C7045C4F2010C27DCB0F1804FCA
:102DA00031D040F20042C4F2000290422BD040F6F3
:102DB0000002C4F20002904225D041F6FF72C4F234
:102DC0000002904229DC70453CDCB0F1804F5FD0BE
:102DD00040F20042C4F20002904259D040F6000294
:102DE000C4F20002904253D056E000BF40F60042C9
:102DF000C4F20002904206D0604504D00022C4F222
:102E000001029042D9D14A6823F07003134341F67E
:102E1000FF72C4F200029042D5DD43F6FF72C4F2A5
:102E20000102904222DC42F20002C4F2000290420F
:102E30002ED00022C4F20102904229D0604527D052
:102E40002AE000BF40F60042C4F2000290421FD0C8
:102E500041F60002C4F20002904219D041F600424D
:102E6000C4F20002904213D016E000BF44F2000208
:102E7000C4F2010290420BD044F60002C4F20102F7
:102E8000904205D044F20042C4F20102904203D1C4
:102E9000CA6823F44073134323F080024B69D1F8CE
:102EA00000E08C681A430260C46240F48062C0F89B
:102EB00028E0624504BF096901630121416110BD39
:102EC00010B504460068D4E902C22369016921F4FF
:102ED000405111430161626943EA0C01E369114306
:102EE000C268194349F20C639A431143C1604169B6
:102EF000A26921F4407141F20043114340F4806221
:102F0000C4F201039A42416102D1FFF75FF801E088
:102F1000FFF748F8E16963681922B1F5004FA0FB9B
:102F2000020123D15A00DB0FFDF75CF948F21F5173
:102F3000C5F2EB11A0FB01235A094FF69C73C0F6B2
:102F4000FF7303F1805302FB0300322303EBC00045
:102F5000A0FB01014FF4F87000EA111000EB021021
:102F6000C1F3421108442168886010BD9A009B0F8C
:102F7000FDF738F948F21F51C5F2EB11A0FB012310
:102F80005A094FF69C73C0F6FF7302FB030032230D
:102F900003EB0010A0FB0101F02000EA511000EB50
:102FA0000210C1F3431108442168886010BD00007D
:102FB000FEE700002DE9F04786B04FF4805041F263
:102FC000004A01901120C4F2020A029002200490EB
:102FD00001A95046FEF7CEF950464FF48051002229
:102FE0000024FEF7A1FA40F2C819C2F20009D9F88C
:102FF000000044F620624462016841F00101016072
:1030000044F61F61436A8B4208D8436A8B4205D855
:10301000436A8B4202D8436A9342F3D3016A41F276
:103020001112114208D1016A40F24442114203D107
:10303000016821F00101016050464FF480510122E6
:10304000FEF772FAD9F8000000214162016841F0F0
:1030500001010160416A1D2908D8416A1D2905D86E
:10306000416A1D2902D8416A1E29F3D3016A41F23F
:103070001112114208D1016A40F24442114203D1B7
:10308000016821F0010101604FF48050019001209E
:103090000025039001A950460295FEF76BF95046B2
:1030A0004FF48051FEF73AFA20B1284606B0BDE849
:1030B000F08700BF41F2111740F24448002609E0B2
:1030C000016A39421CD050464FF48051661CFEF70D
:1030D00025FAF8B9D9F8000034464562016841F094
:1030E00001010160416A0029EAD1416A0029E7D162
:1030F000416A0029E4D1416A0029F3D0E0E700BF2A
:10310000016A11EA080FDED1016821F001010160B6
:10311000D9E700BFA4F16400C0B2AF2804D20025F3
:10312000284606B0BDE8F08750464FF48051FEF7C0
:10313000F5F900284FF00005B7D041F2111740F221
:10314000444800240AE000BF016A39421CD05046BE
:103150004FF48051741CFEF7E1F9F8B1D9F8000082
:1031600026464562016841F001010160416A00297B
:10317000EAD1416A0029E7D1416A0029E4D1416AD4
:103180000029F3D0E0E700BF016A11EA080FDED1A1
:10319000016821F001010160D9E700BFA6F1130029
:1031A000C0B20025512838BF0125284606B0BDE829
:1031B000F087000044F60001C4F200010A685206DC
:1031C00009D40A6852065CBF0A685FEA426202D408
:1031D0000A685206F2D5C2B24A60704782B0FEF762
:1031E00029FDFFF767FDFFF7F3FBFFF7ABFCFFF7E8
:1031F000E1FCFFF76FFC03200421002202F0C8FD70
:1032000040F21805C2F20005686003200421002284
:1032100002F0BEFD28600120009043F60D6005F12C
:103220000804C0F600000DA14FF4007200230194C1
:1032300003F09CF80220009043F659500C35C0F67C
:10324000000008A180220023019503F08FF807A059
:1032500003F088FF02F0E4FBFEE700BF4F4C45445B
:103260000000000044485431310000005374617282
:10327000745363686564756C6572200D000000000E
:103280002DE9F041044602F0BFF940F22806C2F2EF
:103290000006F06840F244350130F0603068C2F258
:1032A000000558B13069002840F007813068E16AB4
:1032B000C06A884298BF3460FFE000BF3460F068A5
:1032C000012840F0FA80284602F044F905F1140084
:1032D00002F040F905F1280002F03CF905F13C004C
:1032E00002F038F905F1500002F034F905F16400FC
:1032F00002F030F905F1780002F02CF905F18C00AC
:1033000002F028F905F1A00002F024F905F1B4005B
:1033100002F020F905F1C80002F01CF905F1DC000B
:1033200002F018F905F1F00002F014F905F58270C9
:1033300002F010F905F58C7002F00CF905F59670A5
:1033400002F008F905F5A07002F004F905F5AA707D
:1033500002F000F905F5B47002F0FCF805F5BE7056
:1033600002F0F8F805F5C87002F0F4F805F5D2702F
:1033700002F0F0F805F5DC7002F0ECF805F5E67007
:1033800002F0E8F805F5F07002F0E4F805F5FA70DF
:1033900002F0E0F805F5027002F0DCF805F50770C0
:1033A00002F0D8F805F50C7002F0D4F805F51170AC
:1033B00002F0D0F805F5167002F0CCF805F51B7098
:1033C00002F0C8F805F5207002F0C4F805F5257084
:1033D00002F0C0F805F52A7002F0BCF805F52F7070
:1033E00002F0B8F805F5347002F0B4F805F539705C
:1033F00002F0B0F805F53E7002F0ACF805F5437048
:1034000002F0A8F805F5487002F0A4F805F54D7033
:1034100002F0A0F805F5527002F09CF805F557701F
:1034200002F098F805F55C7002F094F805F561700B
:1034300002F090F805F5667002F08CF805F56B70F7
:1034400002F088F805F5707002F084F805F57570E3
:1034500002F080F805F57A7002F07CF805F57F70CF
:1034600002F078F805F5826002F074F805F2244065
:1034700002F070F805F5876002F06CF805F24C4038
:1034800002F068F840F20418C2F20008404602F068
:1034900061F808F11407384602F05CF806F16400A0
:1034A00002F058F806F13C0002F054F806F1500022
:1034B00002F050F8C6F81C8037627068716A421CCE
:1034C000E06A72608842626488BF706200EB8000CC
:1034D00005EB8000211D02F07FF802F0B9F8306999
:1034E00088B13068E16AC06A884228BFBDE8F081CF
:1034F0004EF60450CEF200004FF080510160BFF351
:103500004F8FBFF36F8FBDE8F081000040F22805B8
:1035100040F244364EF60458C2F20005C2F20006EC
:10352000CEF200084FF0805703E000BF204602F0C3
:10353000A7F8A868D0B102F067F8A86CC468201D8D
:1035400001F0DAFFE8680138E860A8680138A8608F
:1035500002F07EF894F859000228EAD00128E5D05C
:1035600070B9206B02F08CF8E0E700BF30680228E9
:10357000DFD3C8F80070BFF34F8FBFF36F8FD8E76A
:103580004FF0500080F31188BFF36F8FBFF34F8F60
:10359000FEE700002DE9F0470A9C8246206B1646A4
:1035A0000F46DDE908599100A5229846FCF75DFE1B
:1035B000206B002F00EB8600A0F1040020F007062E
:1035C00056D0387884F83400387800284BD0787892
:1035D00084F835007878002845D0B87884F836002B
:1035E000B87800283FD0F87884F83700F878D0B35E
:1035F000387984F838003879A8B3787984F83900B4
:10360000787980B3B87984F83A00B87958B3F87902
:1036100084F83B00F87930B3387A84F83C00387A83
:1036200008B3787A84F83D00787AE0B1B87A84F803
:103630003E00B87AB8B1F87A84F83F00F87A90B1D1
:10364000387B84F84000387B68B1787B84F841008F
:10365000787B40B1B87B84F84200B87B00281CBF5F
:10366000F87B84F84300002084F8430003E000BFA7
:10367000002084F834000027201D372D28BF37256F
:10368000E562C4E9135701F071FF04F1180001F07D
:103690006DFFC5F13800A0613046514642462461B5
:1036A0006462676584F8587000F042FBB9F1000F5E
:1036B000206018BFC9F80040BDE8F08708480068DE
:1036C000006880F308884FF0000080F3148862B629
:1036D00061B6BFF34F8FBFF36F8F00DF00BF0000F5
:1036E00008ED00E081B00020009040F21000C2F22E
:1036F000000000684FF0500181F31188BFF36F8F15
:10370000BFF34F8F013007D0FEE700BF009830B9FC
:10371000009820B9009810B900980028F6D001B0A0
:103720007047000088B040F2A00AC2F2000A0DF112
:103730001009EB46DAF8080005681DB1C068046896
:1037400001E000BF002402F0E3F902F08BFEDAF89A
:1037500010100646884220D3002DCAF8106051D0C0
:10376000A6424FD302F086FFDAF80800C068C768A7
:103770003D1D284601F0C0FE97F82800410745D4BA
:1037800000F0FE0087F8280084E000BF6860DAF8E7
:10379000080039462D6101F0EDFEDAF808000168F5
:1037A00031B3C068C56804682F1D384601F0A4FE17
:1037B000296A2846884795F828004007EDD5A8696A
:1037C0002044A042E2D8DAF80000002800F0488146
:1037D000002004A931C102F035FEDAF800004946A4
:1037E0000022002302F088FB0028D6D138E100BF78
:1037F000DAF80C10CAF81060CAE9021002F03AFFB9
:103800001AE100BF65B1002210E000BFB8693F6156
:103810000119B14279601FD90AF1080021E000BF07
:10382000DAF80C000068B0FA80F04209DAF800001B
:10383000A11B02F001F802F01DFF002840F0FC80FF
:103840004EF60450CEF200004FF080510160BFF3FD
:103850004F8FBFF36F8FEFE0311B814206D20AF129
:103860000C000068294601F085FE13E0DAF800003C
:10387000002800F01381002004A991C102F0E2FDAC
:10388000DAF8000049460022002302F035FB002848
:1038900000F00481396A38468847CDE00098B0F1DD
:1038A000FF3F07DCDDE901200399904700980028DD
:1038B00000F1C280029E706910B1301D01F01CFE43
:1038C00002F0D0FDDAF81010074688420DD30098B8
:1038D000CAF8107009283FD9AEE000BF6860DAF876
:1038E000080021462D6101F045FEDAF80800016864
:1038F00041B3C068C568D0F800802C1D204601F097
:10390000FBFD296A2846884795F828004007ECD532
:10391000A86940444045E1D8DAF80000002800F0EA
:1039200095800020CDE90408069502F08BFDDAF8B9
:10393000000049460022002302F0DEFA0028D4D11C
:1039400084E000BFDAF80C10CAE902100098CAF847
:103950001070092800F27080DFE800F006060644C7
:1039600048620606444800BF96F82800019A40F0D5
:103970000101B06986F828108318314641F8043FE8
:10398000BB42366106D997420AF1080007D293423A
:103990000AD204E0BA1A824206D20AF10C00006888
:1039A00001F0E8FD48E000BF316A3046884796F8EC
:1039B0002800400740D5DAF8000000285AD00198C6
:1039C000B169069608440021CDE9041002F03AFDE1
:1039D000DAF8000049460022002302F08DFA58BBB5
:1039E00048E000BF96F8280022E000BF96F82800C3
:1039F00040F00101019886F828100028B06143D0FA
:103A0000384431460AF10C0241F8040F3661B842DD
:103A100088BF0AF10802106801F0ACFD0CE000BF9D
:103A200096F82800810703D4304601F029FE03E010
:103A300000F0FE0086F82800DAF80000594600225F
:103A400002F070FB00287FF429AF73E64FF05000BE
:103A500080F31188BFF36F8FBFF34F8FFEE700BF76
:103A60004FF0500080F31188BFF36F8FBFF34F8F7B
:103A7000FEE700BF4FF0500080F31188BFF36F8F57
:103A8000BFF34F8FFEE700BF4FF0500080F3118867
:103A9000BFF36F8FBFF34F8FFEE700BF4FF05000B3
:103AA00080F31188BFF36F8FBFF34F8FFEE70000E5
:103AB000F0B581B0044601F0A7FD94F94560012EF0
:103AC0000FDB04F1240500BF286850B1284602F03E
:103AD00097FD002818BF01F023FFF0B2013E012836
:103AE000F2D8FF2684F8456001F0B2FD01F08CFDAC
:103AF00094F94470012F0EDB04F11005286850B1D1
:103B0000284602F07DFD002818BF01F009FFF8B239
:103B1000013F0128F2D884F8446001B0BDE8F040CC
:103B200001F096BD70B5044601F0F2FF40F2DC0CE6
:103B3000C2F2000CDCF8040050B19CF80000002830
:103B400018BF4FF000404FF0000574BB8DE000BF80
:103B500040F6BA40C2F20000C21D22F0070210F087
:103B60000701A0EB020318BF104600224FF4705566
:103B7000CCE90602002918BF03F57055411921F060
:103B80000701A1F10803CCF8043041E90222191A17
:103B9000C0E9003101208CF800004FF00040CCE972
:103BA0000211002C4FF000055FD020405DD124F0C1
:103BB000070000F11002600708BF04F10802002AA4
:103BC0004FF0000551D0DCF8080082424DD8604625
:103BD00050F818EFDEF8045095422CD2DEF80010B1
:103BE000C1B174464D68954218D20B68B3B15D6897
:103BF000954217D21868A8B14568954216D2046854
:103C0000A4B16568954215D22168A6460029E9D17C
:103C100011E000BF0CF118000DE000BF8E462046F9
:103C200009E000BF9E46084605E000BF86461846EC
:103C300001E000BFA646DCF804108E4514D00168F0
:103C4000DEF80040AB1A112B04604DD30EEB0205D9
:103C5000680719D04FF0500080F31188BFF36F8FC1
:103C6000BFF34F8FFEE700BF002502F003FD68079A
:103C70005BD04FF0500080F31188BFF36F8FBFF31C
:103C80004F8F00BFFEE700BF0CF118006B60CEF84D
:103C9000042000BF0368AB420AD21868A8420BD2C6
:103CA0000368AB4204D218681A46A842F2D304E073
:103CB0000246184601E000BF1A4653686C68D618E1
:103CC000AE4202D11C44154654602B19834207D1E1
:103CD000DCF80430984203D0D0E9000323446B6041
:103CE000AA42286018BF156001F10805DEF804003B
:103CF000DCE90212091A9142CCF8081038BFCCF85E
:103D00000C109CF80010002918BF40F00040CEF8BD
:103D10000400DCF8100000210130CEF80010CCF8CF
:103D2000100002F0A7FC6807A3D1284670BD000070
:103D3000034643F2E560C0F600004FF0807C21F0BE
:103D4000010103E903106FF0020043F8240CA3F112
:103D5000440043F8202C704782B040F2004440F207
:103D6000180AC4F2020400276D4601AEC2F2000A2E
:103D70000FF278080FF284090AE000BF20464FF4E2
:103D800080410022FDF7D0FB40F6B83001F07EFD07
:103D900020464FF480410122CDE90077FDF7C4FBB6
:103DA00028463146FDF706F90028E7D1DAF8040085
:103DB00031460022002302F09FF8DAF8000029467D
:103DC0000022002302F098F80198FCF72DFC02462F
:103DD00040460B4602F020FD0098FCF725FC024609
:103DE00048460B4602F018FDC8E700BF54656D70E9
:103DF0003A252E316620E284830D0A0048756D69EC
:103E00003A252E31662025250D0A00008EB040F29D
:103E1000A474C2F20004204600F078F8204600F0B6
:103E200091F8204600F09AF847F2FC11C0F6000124
:103E3000204600F0B5F940F218080020C2F2000850
:103E40000DF1300A0DF1340B07AF02AD4FF0805980
:103E5000CDE90C002DE000BF0D98FCF7E5FB41EC2F
:103E6000100B3846142121A28DED000B02F0E4FC6A
:103E70000C98FCF7D9FB41EC100B284614211FA22B
:103E80008DED000B02F0D8FC204600F05BF82046D8
:103E9000002114223B4600F0F7F82046002128229A
:103EA0002B4600F0F1F8204600F062F9642001F0A2
:103EB000EDFCD8F800005146002202F033F9D8F8A2
:103EC0000410064608465946002202F02BF9012E3E
:103ED00008BF0128C0D04EF60450CEF20000C0F852
:103EE0000090BFF34F8FBFF36F8FDFE754656D70A6
:103EF0003A20252E316620430000000048756D6988
:103F00003A20252E316620252500000010B547F205
:103F1000F01144F6716245F2C933C0F60001C0F6F3
:103F20000002C0F60003044600F0DEF9204600F06F
:103F300047FF2046002100F04FFF2046BDE810401B
:103F4000AFF3008080B5016890F83820097C406BA1
:103F50005143C900FCF790F980BD000010B504463C
:103F600000F09AF8204600F0DFF80028FAD1204649
:103F70000021BDE8104000F005B9000070B582B026
:103F8000002B00F07F8090F88CC0BCF1000F79D03E
:103F9000DDF818C0022B09D3BCF1030F3AD0BCF1F5
:103FA000020F03D1C91A013103E000BF5FEACC7CE4
:103FB00032D1B0F84CC0944564D8B0F84EC09445A6
:103FC00060D9B0F848C0B0F84AE013FA81F48BB277
:103FD000A5B27345664638BF0E46A54208BF0E46D9
:103FE00073452346B1B238BFAEF10103A54208BF05
:103FF0002B46714546D29BB2634543D9614588BF84
:104000008C46734538BF9E46AEEB0C034FF0000E56
:10401000614631E0D21A0132B0F848608E4231D8A0
:10402000B0F84A608E422DD9B0F84CC0B0F84EE0DE
:1040300013FA82F493B2A5B27345664638BF1646AA
:10404000A54208BF164673452346B2B238BFAEF14B
:104050000103A54208BF2B46724513D29BB26345AC
:1040600010D9624588BF9446734538BF9E46AEEB73
:104070000C034FF0010E6246066B9BB2B668CDF89A
:1040800000E0B04702B070BD44F6216CC0F6000CF1
:10409000C0F804C000F08AB910B5044690F8930047
:1040A00040B1206894F83820017C606B5143C9000E
:1040B000FCF7E2F820460021BDE8104000F062B8AD
:1040C00010B5B0F84E40DDF808C0B0F84CE09442AE
:1040D00006D962450AD8E64524BF002010BD05E098
:1040E00062454FF000021DD9E6451BD2B0F84A20C8
:1040F000B0F848008A420BD9002299424FF00001E3
:1041000088BF0121984238BF012241EA020010BD58
:10411000002299424FF0000188BF0121984238BF28
:1041200001220A40104610BDB0B5044600F0A6FDBD
:1041300094F8392094F83800216802444B7CD5B2B9
:104140009D420FD294F893202AB1097C4143606BC1
:10415000C900FCF791F82046294600F013F8012029
:10416000B0BD00BF204600F031FE0020B0BD000011
:1041700010B5044600F082FD2046BDE8104000F076
:1041800025BE000010B50446006B84F839100268A3
:1041900020469047206B41682046BDE81040084704
:1041A0002DE9F04F81B00446806D88425DD0A16555
:1041B00008780D4684F87400487884F8750088788B
:1041C00084F87600C87884F87700087984F8780055
:1041D000487984F87900887984F87A00C87984F875
:1041E0007B00087A84F87C00487A84F87D0091F995
:1041F0000A9084F87E90C87A84F87F0091F90C8048
:10420000084684F8808091F90D7084F8817091F9E6
:104210000E6084F8826091F90FB084F883B091F950
:1042200010A0112184F884A000F0E0FBA4F886001F
:104230002846132100F0DAFBA4F88800284615214F
:1042400000F0D4FBA4F88A0094F88D0084F88E70F6
:1042500084F88F6048B101280AD15F45B8BF84F85F
:104260008EB0564501DD84F88FA001B0BDE8F08F17
:1042700008EB0900B842C8BF84F88E004645C24624
:10428000C8BF84F88FA001B0BDE8F08F44F29D4113
:10429000C0F60001C1657047B0B50446049884F8C3
:1042A000382040F20112A4F8922002680025C4E9E7
:1042B0000B302046A56584F8395084F86D5084F899
:1042C000915084F88D50616390470020CFF6FF70C5
:1042D000216B206560654968204688472046FFF7C6
:1042E000D5FF84F87050B0BDB0B582B09C4613467F
:1042F0000C4645F27D2145F24502C0F60001C0F6AC
:1043000000020546CDF800C000F06CFD0DF107007D
:1043100000F0ACFC9DF8072044F6F5130146C0F60A
:10432000000328460094FFF7B7FF02B0B0BD0000BD
:10433000022B07D0012B09D0002B14BF10440844D6
:1043400080B27047401A80B2704700BF801A80B2B6
:1043500070470000022B07D0012B09D0002B14BF9F
:10436000401A104480B27047801A80B2704700BF74
:10437000084480B27047000010B582B0B0F83EE04B
:10438000DDF810C0C46AA2EB0E0292B2CDF800C0F4
:10439000A04702B010BD000080B582B0DDF810C0AB
:1043A000CDF800C0FFF7E8FF02B080BD2DE9F04F67
:1043B00081B01F4692460D4606464FF6FF7801F043
:1043C00097F8726839783046904740455ED0A8F13A
:1043D00001017C1C4FF000091FFA81FB08E000BFBF
:1043E0008144726814F8011B3046904740454FD015
:1043F00087B25F45F5D096F870205046032A2946CB
:104400001DD8DFE802F003090F1700BFF16D304639
:1044100088475044294612E0F16D30468847291AF2
:104420000CE000BFF16D30468847AAEB000029463A
:1044300005E000BFF16D3046884741195046A6F8A7
:104440006410A6F866003046394600F069FA48B1B3
:104450000146304600F024F896F87010032906D97A
:10446000BEE700BF002096F870100329B8D8DFE837
:1044700001F007090B0300BFAAEB000AB0E700BF79
:104480000544ADE78244ABE72D1AA9E74FF00009D8
:104490001FFA89F001B0BDE8F08F000000207047DE
:1044A0002DE9F04F8BB08346016600208BF86C003D
:1044B0009BF878000B784FF0FF32082831BF054693
:1044C0000131CBF86010A0F1080502FA00F023EAF0
:1044D00000009BF879308BF86C508BF86A005F19FC
:1044E0000E78FCB2082CECB226FA04F60AD34C1C67
:1044F000CBF86040C5F108054978EDB2A9400E43FC
:10450000083F21469A409BF8923026EA0202039225
:104510008BF86B209BF87A208BF86E30B3FA83F31C
:104520005B098BF86C708BF86F30BC180B78E6B2B7
:10453000082EFEB223FA06FC0BD34E1CCBF86060AB
:10454000C7F108074978FFB2B9404CEA010C083CB2
:1045500031469BF87B708BF86C403D190E78EBB2BE
:10456000082BE3B226FA03F60AD3C4F108034C1C65
:10457000CBF860404978DBB299400E43083D2146B4
:104580009BF87CA04FFA80F98BF86C500AEB050081
:104590000B78C4B2082CECB223FA04F312D31C46F5
:1045A000C5F108034D1CCBF860504978DBB2994047
:1045B0000C4308380294B9F1010F8BF86C0008DA4B
:1045C0009EE100BF0293B9F1010F8BF86C00C0F2BD
:1045D0009781511E4FF0FF30C9B27B1E00FA02F2E4
:1045E00000FA01F1B840DBB201272CEA020207FA17
:1045F00003F3039F114426EA00023A449A1A9BF8F7
:104600007060BBF8640057B24DB229463A46334653
:10461000FFF78EFE8046BBF8660029463A463346D1
:10462000ABF86480FFF796FE032EABF8660009D85E
:10463000DFE806F0020C1620039958FA89F340FAD5
:1046400081F11EE0434601461BE000BF039908F1DB
:10465000010349B2A3EB010850FA89F111E000BF50
:104660005FFA89F108F10103A3EB010803994AB24B
:1046700005E000BF03995FFA89F248FA81F3411C13
:10468000881A8FB21FFA88F182B29BB258460097FF
:10469000FFF716FD002800F033819BF86C30DBF843
:1046A0006060CDF804A04FF0000E4FF0000AABF8A8
:1046B00068E004E0039840B2854280F21B819BF8D9
:1046C00076C0327803EB0C07D8B2FDB2082D22FA7F
:1046D00000F20AD3751CCBF86050C3F10803707860
:1046E000DBB298400243083F2E469BF877308BF8A8
:1046F0006C70D9193578CCB2082CFCB225FA04F5C7
:1047000009D3741CCBF86040C7F108077078FFB27A
:10471000B840054308394FF0FF3404FA0CF022EAA0
:104720000000059004FA03F025EA000004908BF8DD
:104730006C1003E0C8078BF86C30BBD09BF86D00A1
:1047400010B39BF86A00059CA0EB0A01E2B2CBB261
:10475000934269D8641AE1B281420EF1010E61D32D
:10476000241AE1B2814253D3241AE1B2814253D3D5
:10477000241AE1B2814253D3241AE1B281420EF1EC
:10478000040EEDD24EE000BF059C00209BF86A109D
:10479000A1EB0A0550BB00BF9BF87090BBF8660008
:1047A0004FFA8AF64FFA8EF731463A464B46CDF825
:1047B00028E0FFF7CFFDBBF864108046084631467D
:1047C0003A464B46FFF7B4FD9BF86F200146E0B236
:1047D000EBB2984238BF03468BF8922058464246C7
:1047E000CDF80090FFF7CAFBDDF828E0E8B2E1B2AF
:1047F000814219D39BF86D00641B0EF1010E4FF03E
:10480000000A9BF86A100028A1EB0A05EED1C3E765
:104810000EF1010E06E000BF0EF1020E02E000BF35
:104820000EF1030E4FF0000A049A04EB0A018BF814
:1048300068108BF869E000BF9BF86A009BF8706015
:10484000A0EB010A0A925FFA82F8BBF866205FFAD1
:104850008AF7BBF864004CB24FFA8EF50997B84559
:10486000079238BF4746069121462A463346F1460D
:10487000FFF75EFD0890079821462A463346FFF76A
:1048800069FD9BF86E1002468BF892100899584605
:104890003B465C460096FFF771FB0998804507D3BD
:1048A0000A9A09F1010EA2EB0A020021A346C3E70E
:1048B00006980A99266E01EB000A94F86C2084F899
:1048C00068A084F869903178531CDFB2A346082FA2
:1048D00021FA02F1CE46FFF42DAF701CCBF8600038
:1048E000C2F108037778DBB207FA03F31943D31F49
:1048F00006461FE79BF86E00DDF804A08BF89200D7
:104900004FF0FF30029A00FA0AF122EA0101AAF1FF
:104910000102D2B29040084440B20BB0BDE8F08F23
:1049200070B50C46816DFF2C01F1170104D8612C84
:1049300036D3B0F8880037E0B0F88A000E18354654
:104940002846002100F052F806442846022100F0D3
:104950004DF8A04205F10405F2D3308840BA002892
:104960003ED0A0423ED0B078315A49BAC1B3A1423C
:10497000064437D0B078315A49BA89B3A1420644C7
:1049800030D0B078315A49BA51B3A142064429D047
:10499000B178705A0E4440BA0028E2D120E000BF3E
:1049A000412C02D3B0F8860001444878C0B10A789F
:1049B000A24219D00144487890B10A78A24213D09B
:1049C0000144487860B10A78A2420DD00144487889
:1049D00030B10A78A24207D0014448780028E6D1D5
:1049E000002070BDF01C70BD881C70BD405A00BA1C
:1049F000000C70472DE9F04102F00704012690F801
:104A00009250A640022DB44628BF4FF0000CB5F1DD
:104A1000010E18BFB646056822F007062D7C476BCD
:104A2000DDF81880754317FA85F5B8F1000F2944B1
:104A300018D013F00306A3F1010500F0A9800C784B
:104A400044EA0C0484EA0E07541C14F007040F70A7
:104A50001CD04FEA4C0C4FEA4E0E012E23D12B46B0
:104A600096E000BF13F00302A3F1010038D00C78E8
:104A7000012A44EA0C0484EA0E0401F8014B25D112
:104A8000034680B20328C0F0EF802DE0478F4FF03F
:104A90000108394490F89270012F98BFC44618BF9E
:104AA000C646012EDBD00C7844EA0C0484EA0E07DB
:104AB000941C14F007040F7036D04FEA4C0C4FEAE8
:104AC0004E0E022E3DD1023B62E000BF0C78022A5E
:104AD00044EA0C0484EA0E0401F8014B42D1023B83
:104AE00080B20328C0F0C080081F00BF10F8041F68
:104AF000043B41EA0C0181EA0E01017041788278A1
:104B000041EA0C0181EA0E01C478417042EA0C01CD
:104B100081EA0E01817044EA0C0181EA0E011A0457
:104B2000C170E3D1A0E000BF478F4FF001083944C6
:104B300090F89270012F98BFC44618BFC646022E47
:104B4000C1D00C78033244EA0C0484EA0E040C70E1
:104B500012F00704A3F1030310D04FEA4C0C4FEA04
:104B60004E0E15E00A78033B42EA0C0282EA0E027E
:104B700001F8012B80B2032876D3B5E7428F0126D6
:104B8000114490F89220012A98BFB44618BFB64647
:104B9000AAB2032A38BFBDE8F08101220CE000BFB1
:104BA000458F90F892602944012E98BF944618BF13
:104BB0009646043B1D0457D00D78661C45EA0C054B
:104BC00085EA0E0576070D7004D04FEA4C0C4FEACB
:104BD0004E0E08E0458F90F892602944012E98BF50
:104BE000944618BF96460D78A61C45EA0C0585EA42
:104BF0000E0576070D7005D04FEA4C0C4FEA4E0EAD
:104C000009E000BF458F90F892602944012E98BFBB
:104C1000944618BF96460D78E61C45EA0C0585EAD1
:104C20000E0576070D7005D04FEA4C0C4FEA4E0E7C
:104C300009E000BF458F90F892602944012E98BF8B
:104C4000944618BF96460D78043445EA0C0585EA6B
:104C50000E0514F007040D70A2D04FEA4C0C4FEA79
:104C60004E0E043B1D04A7D1BDE8F081014640F67D
:104C700038000822C2F200000A7070472DE9F04F98
:104C800081B0834690F8388000689BF8396090F8CE
:104C90001190002501274FF6F87A00BFDBF80000DD
:104CA000F2B2037CDBF8340005FB03F101EA0A01F0
:104CB000441858460021009400F06EF8474506D28B
:104CC0000136F0B20835484507F10107E6D301B0D7
:104CD000BDE8F08FB0B590F838100568CB00838739
:104CE00095F810C090F8393095F811E04FEACC0CE7
:104CF000DA005C18A0F83AC0C287744588BFAEEBF2
:104D000003011944C900A0F84020A0F842106969C5
:104D10004164B0BD70B582B00446216CB0F8440067
:104D2000E164B4F85010B4F85420B4F85230B4F838
:104D300056500026A4F84A002046A4F84860009582
:104D4000FFF7BEF920B3B4F84810B4F850000122C0
:104D5000814284F88C2038BFA4F84800B4F84A1087
:104D6000B4F85200814288BFA4F84A00B4F84C104D
:104D7000B4F85400814238BFA4F84C00B4F84E1087
:104D8000B4F85600814288BFA4F84E0002B070BD4E
:104D900084F88C6002B070BD80B582B0DDF810C0C0
:104DA000D0F808E08DF805108DF806208DF8043055
:104DB0006B460F210122CDF800C0F04702B080BD44
:104DC000D0F808C00A21002200236047D0F808C0AC
:104DD0001021002200236047D0F808C00A460B21AA
:104DE0000023604710B54FF47F44DDF808C0A0F8F9
:104DF0002340FF244FF0000E80F8284000F1080403
:104E0000C0F800E080F826E084E80E50BDE81040CD
:104E1000AFF30080D0F808C00921002200236047CA
:104E200000294FF6FF7008BF70470A2918BF0846CF
:104E300070470000D0F810C01921002200236047FD
:104E400080B582B08DF807100DF10702012100F046
:104E500003F802B080BD0000D0F810C013460A4627
:104E600017216047D0F810C01821002200236047A6
:104E7000F0B581B014390C294FF000004AD8DFE8B2
:104E800001F00749490D2933494949494949090070
:104E9000FDF720FE012001B0F0BD00BF002AF9D0CF
:104EA00040F6384CC2F2000C9CF8004012F00305AA
:104EB000A2F1010E30D0184610F8017B40F63946B9
:104EC000611CC2F20006012D375527D103467246F8
:104ED00036E000BF40F63840C2F200000021017009
:104EE000012001B0F0BD00BF40F63840C2F2000022
:104EF000037840F22C1040F639424FF47A77C2F230
:104F00000000C2F2000278210097FCF713FC002891
:104F1000C0D0002001B0F0BD13E000BF5F78A01C3E
:104F2000C9B2022D775405D10233023A0146044634
:104F300007E000BF9D78E11CC0B20333033A35544B
:104F40000C465FFA8EF003281AD340F63940043B32
:104F5000C2F20000214600BF13F8047FCDB24755CE
:104F60004E1C5F78F6B287558D1C9F78EDB2475581
:104F7000CE1CDF78043A0431F6B215068755EBD122
:104F80008CF80010012001B0F0BD0000D0F80CC07A
:104F90001921002200236047D0F80CC00A461621D0
:104FA00000236047D0F80CC00A4615210023604753
:104FB000D0F80CC013460A4617216047F0B581B0FF
:104FC0000E4604460DF103050AE000BFA1F11800EA
:104FD000022817D2E668204600220023B0473E464A
:104FE000374617F8011B1729F0DCA1F1150002283C
:104FF00014D27278E768204600238DF80320B84762
:105000000236EDE7FE2915D17278204629218DF868
:10501000032000F051FA0236E2E700BF172909D158
:10502000707801218DF8030020462A46FFF7C0FF63
:105030000236D5E701B0F0BDD0F80CC0182100222F
:1050400000236047F0B581B0143905292CD80446F7
:105050001E461546DFE801F0042C16461EBE00BFB2
:1050600094F824001421FF2804BF782084F8240039
:10507000D4F810C020462A46334601B0BDE8F040BF
:10508000604700BF20462946FFF7DAFE012001B045
:10509000F0BD00BF40F6B940C2F20000002101702F
:1050A000012001B0F0BD00BF002001B0F0BD00BF85
:1050B00040F6B946C2F200063078012802D12046F7
:1050C000FFF7B8FE2046FFF7CDFE20460021FFF790
:1050D000B7FE20462946FFF7B3FE0120307001B02D
:1050E000F0BD00BF40F6B947C2F20007387801288A
:1050F00002D12046FFF79EFE192D7DD320461821B0
:10510000324600F0DDF9A5F11800C1B2192906F107
:1051100018026FD32046182100F0D2F9A5F1300013
:10512000C1B2192906F1300264D32046182100F0DB
:10513000C7F9A5F14800C1B2192906F1480259D3AF
:105140002046182100F0BCF9A5F16000C1B2192970
:1051500006F160024ED32046182100F0B1F9A5F106
:105160007800C1B2192906F1780243D320461821EC
:1051700000F0A6F905F17000C1B2192906F19002FC
:1051800038D32046182100F09BF905F15800C1B230
:10519000192906F1A8022DD32046182100F090F914
:1051A00005F14000C1B2192906F1C00222D3204600
:1051B000182100F085F905F12800C1B2192906F17E
:1051C000D80217D32046182100F07AF91035F036AE
:1051D00012E000BF40F6B945C2F200052878012868
:1051E00002D12046FFF726FE00202870012001B0E2
:1051F000F0BD00BF05461646E9B22046324600F033
:105200005FF900203870012001B0F0BD10B5D0F872
:1052100014C02821002200230446E047D4F80CC023
:105220002046142100220023E04720464B21012282
:1052300000F042F9206829210279204600F03CF96B
:1052400020464B21002200F037F9206829210279FD
:10525000204600F031F920464B21012200F02CF9C4
:105260002068292142792046BDE8104000F024B989
:105270008A7C016080F8222070470000B0B50D469E
:10528000044600F01FF808B10120B0BD092D0DD073
:105290000A2D15D12046FFF7B9FF49F2AE21C0F61D
:1052A00000012046FFF78AFE0120B0BD49F2F0213F
:1052B000C0F600012046FFF7DBFF0120B0BD00BFB4
:1052C0000020B0BD2DE9F0410B39044604294FF010
:1052D000000088BFBDE8F0811546DFE801F00365F6
:1052E000132335002046002D07BF49F2E321C0F605
:1052F000000149F2E821C0F60001FFF75FFE01203E
:10530000BDE8F081002D51D049F2A721C0F600017F
:105310002046FFF753FE2068C07C84F8220001205D
:10532000BDE8F0812046FFF787FE20468121FFF788
:1053300039FE20462946FFF72FFE2046FFF726FEBE
:105340000120BDE8F08100BF20461E46FFF774FE35
:10535000707994F8221001EBC007204640215FFAD3
:1053600087F8FFF71FFE4FEA181000F110012046E2
:10537000FFF718FE07F00F012046FFF70DFEB0798A
:1053800040F0B0012046FFF707FE00BF30793268D9
:10539000C000C1B22046FFF70BFE013D2806F5D143
:1053A0002046FFF7F3FD0120BDE8F08149F2A0217E
:1053B000C0F600012046FFF701FE2068807C84F8DB
:1053C00022000120BDE8F08129392A2900F26E80EF
:1053D000DFE801F0651C686C656C6C6C6C6C6C6C67
:1053E0006C6C6C6C6C6C6C6C6C6C6C6C6C6C6C6CFD
:1053F0006C6C6C6C6C6C6C65656C6C1616161600BF
:10540000002180F827100120704700BF002000BF56
:1054100000BF00BF00BF00BF00BF00BF00BF00BF94
:1054200000BF00BF00BF00BF00BF00BF00BF00BF84
:1054300000BF00BF00BF00BF00BF00BF00BF00BF74
:1054400000BF00BF00BF00BF00BF00BF00BF00BF64
:1054500000BF00BF00BF00BF00BF00BF00BF00BF54
:1054600000BF00BF00BF00BF00BF00BF00BF00BF44
:1054700000BF00BF00BF00BF00BF00BF00BF00BF34
:1054800000BF00BF00BF00BF00BF00BF40F03F0132
:1054900000BFB1F59F7F00F1400000BFB8D90120E7
:1054A000704700BF012000BF704700BF012180F896
:1054B0002710012070470000D0F814C00023604777
:1054C000F0B581B017460D460646FFF7CBFC3046D7
:1054D0004021FFF7B5FC3469304617212A463B4688
:1054E000A047304601B0BDE8F040FFF7A3BC000084
:1054F000002180F826107047D0E9013201699A60D6
:10550000D1F804C082688445536008BF4A60002215
:1055100002610868013808600868704744F6C023D3
:10552000C2F20003036044F6C000C2F2000008604B
:10553000802010607047000044F61C73C2F2000324
:10554000036044F61C30C2F2000008604FF4807023
:10555000106070474FF0FF31024642F8081F0021EB
:105560004260C0E903220160704700000021016130
:105570007047000010B5D1F800E01EF1010213D011
:1055800000F1080462681368734511D853681C68F9
:10559000744511D85A68146874450FD85468236844
:1055A000A4467345EED90BE00269D2F804C007E0C7
:1055B0009446224604E000BF9C4601E094461A4609
:1055C000C1F804C0CCF808108A6051600861016815
:1055D0000131016010BD0000D0F800C043680861CF
:1055E0009A684B608A609A68996051600CF1010179
:1055F00001607047DFF80C00016841F47001016040
:105600007047000088ED00E04FF0500080F31188F3
:10561000BFF36F8FBFF34F8F40F21000C2F2000054
:1056200001684A1C026009B1704700BF4EF6045081
:10563000CEF200000068000608BF70474FF050002F
:1056400080F31188BFF36F8FBFF34F8FFEE7000029
:1056500040F21000C2F20000016839B10139016066
:1056600018BF7047002080F3118870474FF050003A
:1056700080F31188BFF36F8FBFF34F8FFEE70000F9
:1056800070B5002808BF70BD40F2DC05C2F200050D
:105690000446287854F8041C002818BF4FF0004036
:1056A00008420DD0A4F1080632689AB14FF05000BC
:1056B00080F31188BFF36F8FBFF34F8FFEE700BFFA
:1056C0004FF0500080F31188BFF36F8FBFF34F8FFF
:1056D000FEE700BF21EA000044F8040C00F018FACD
:1056E00054F8041CA8680844A86005F1180000BF1D
:1056F0000368B3420AD21868B04225D20368B342A5
:1057000004D218681A46B042F2D301E002461846A5
:105710005368D418B44202D1194416465160731824
:10572000834206D16B68984203D0D0E90003194444
:105730007160B242306018BF1660686901306861FC
:10574000BDE8704000F096BF1A465368D418B442C2
:10575000E5D1E1E74EF21000CEF200000021016039
:10576000816040F20C01C2F20001096844F6D35294
:10577000C1F26202A1FB02124FF0FF3101EB921164
:10578000416007210160704744F6787CC2F2000C4A
:10579000DCF8002022B3634653F8082F42B3634677
:1057A00053F8102F52B3634653F8182F62B3634671
:1057B00053F8202F72B3634653F8282F82B3634601
:1057C00053F8302F92B3634653F8382F002A18BF8E
:1057D0007047072219600CEBC2014860704700BF98
:1057E0000022634619600CEBC2014860704700BF9D
:1057F000012219600CEBC201486070470222196057
:105800000CEBC20148607047032219600CEBC20127
:1058100048607047042219600CEBC2014860704771
:10582000052219600CEBC20148607047062219601E
:105830000CEBC2014860704770B515460E46044631
:10584000FFF7E2FE94F84400FF2804BF002084F82C
:10585000440094F84500FF2804BF002084F8450068
:10586000FFF7F6FEA06B28B12046BDE87040FEF7BA
:105870001FB900BF04F1240031462A4600F092F817
:105880002046BDE87040FEF713B9000070B588B33C
:1058900040F22805C2F200050446686950B14FF095
:1058A000500080F31188BFF36F8FBFF34F8F00BF9D
:1058B000FEE700BF686901306861AE69286804309E
:1058C000FFF71AFE2868A419446005D3286A2968DE
:1058D0000431FFF74FFE08E0E86929680431FFF75B
:1058E00049FEE86A844238BFEC6200F0C3FE00283B
:1058F00018BF70BD4EF60450CEF200004FF080513C
:105900000160BFF34F8FBFF36F8F70BD40F228016E
:10591000C2F200018A6B0260896941607047000031
:1059200040F22800C2F2000001210163704700002C
:1059300070B5D8B140F22804C2F200040D462168C7
:105940001831FFF717FEA66920680430FFF7D4FD71
:10595000681C15D02068AD19456019D3206A2168EC
:105960000431BDE87040FFF705BE00BF4FF05000A6
:1059700080F31188BFF36F8FBFF34F8FFEE700BF37
:1059800054F8500B011D2046BDE87040FFF724BEBF
:10599000E06921680431FFF7EDFDE06A854238BF18
:1059A000E56270BDF0B581B0C0B140F22804C2F22A
:1059B00000040D46216816461831FFF70DFEA76951
:1059C00020680430FFF798FD96B154F8500B011D84
:1059D000204601B0BDE8F040FFF7FEBD4FF050009B
:1059E00080F31188BFF36F8FBFF34F8FFEE700BFC7
:1059F0002068ED19456007D3206A2168043101B0A1
:105A0000BDE8F040FFF7B6BDE06921680431FFF75B
:105A1000B1FDE06A854238BFE56201B0F0BD00002B
:105A200010B588B00020CDE9050006A805A904AA94
:105A3000FFF774FD059800283ED0069C002C45D049
:105A40005C21049A079107995C2949D10799206341
:105A5000022084F8590007A80021CDE9001043F284
:105A60000D50C0F6000028A100230294FDF792FD1E
:105A70002046FDF705FC079840F22804C2F2000416
:105A8000A062B0B100F06EFE411C33D0012810D1ED
:105A90004FF0500080F31188BFF36F8FBFF34F8F2B
:105AA0004FF0FF30E062012020610020A06100F093
:105AB00095F808B010BD00BF4FF0500080F311887A
:105AC000BFF36F8FBFF34F8FFEE700BF4FF0500063
:105AD00080F31188BFF36F8FBFF34F8FFEE700BFD6
